:020000020000FC
:020000002FC00F
:10005C000C948C004FEF4DBF41E24EBF7894CAEC2C
:10006C00D2E0442749934883C8ECD2E04427499313
:10007C00488340E044BD42E045BD41E040936E0002
:10008C0040EF40930A014FEF47B948B966273FEE5E
:10009C0011271430E1F330930B014FEF4A95F1F730
:1000AC00409109014F704F3059F021E00027043086
:1000BC0039F0542F522341F00395220F0C945D001C
:1000CC00330F13950C944F00133071F0033081F003
:1000DC00402F440F400F410F7130C9F271E04F5C5B
:1000EC00639568B90C94890041E4400F0C94890025
:1000FC00103029F0113031F043E20C9489004AE2BF
:10010C000C94890040E30C944D00FFCF4F934FB7F4
:10011C004F93DF93CF939F938F937130E9F480913A
:10012C00CA029091CB020196883E43E0940781F479
:10013C007727CAECD2E04427499348838091C802C0
:10014C009091C90201968093C8029093C90204C091
:10015C008093CA029093CB028F919F91CF91DF91A4
:08016C004F914FBF4F91189510
:00000001FF
