:020000020000FC
:0200000065C0D9
:04005C000C940A01F5
:1000C8000C9438014FEF4DBF41E24EBFA0E0B2E0C3
:1000D800E0E0F2E0CDEFD3E0442749934883CBEF4B
:1000E800D3E04427499348837894C6EFD3E0442764
:1000F80049934883C4EFD3E044274993488340E0B9
:1001080044BD44E045BD41E040936E00C9EFD3E0F3
:10011800442749934883C8EFD3E044274993488349
:1001280040E04093200144E04093210141E04093A6
:10013800730040EF40930A014FEF47B948B90FEFFA
:1001480000BB01B9002701BB02B908E3D6D0E5D04E
:10015800FED008E3D2D0E1D0F1D008E3CED0DDD094
:1001680008E3CBD0DAD008E0C8D0D7D001E0C5D0BA
:10017800D4D006E0C2D0D1D00EE0BFD0CED03FEE72
:1001880011271430E1F330930B014FEF4A95F1F743
:10019800409109014F704F3059F021E00027043099
:1001A80039F0542F522341F00395220F0C94D300B9
:1001B800330F13950C94C500133079F0033089F090
:1001C800402F440F400F410F43956130C1F261E069
:1001D80041930C9407014427F8CF41E4400F0C9455
:1001E8000701103029F01130B1F343E20C940701F4
:1001F800613029F261E04D914093FD0341E0409365
:10020800F8030C9407010C94C300FFCF4F934FB72A
:100218004F93DF93CF939F938F936130E9F480914D
:10022800F6039091F70301968E3140E0940781F42C
:100238006627C6EFD3E04427499348838091F403A7
:100248009091F50301968093F4039093F50304C00D
:100258008093F6039093F7038F919F91CF91DF914D
:100268004F914FBF4F9118954F934FB74F935F934F
:10027800DF93CF939F938F934091F8034130A1F57B
:100288008091F9039091FA030196823040E0940737
:1002980039F54091FB035091FD03451730F04517A0
:1002A80041F04A954093FB0308C043954093FB03F4
:1002B80004C055275093F8030DC0405D01E01DD0E0
:1002C8002CD006E01AD029D00EE017D026D0042F63
:1002D8001BD023D0C9EFD3E044274993488304C0F7
:1002E8008093F9039093FA038F919F91CF91DF91B7
:1002F8005F914F914FBF4F91189501BB1FD0169A30
:100308001DD016981BD0089501BB179A17D0169ABE
:1003180015D0169813D0179808950F93002700BB8F
:1003280001BB159A0BD0169A09D00FB1169807FD84
:10033800F9CF15980FEF00BB0F9108958F939F93F6
:100348009FE08CE90197F1F79F918F910895F6DF6F
:0A035800F5DFF4DFF3DFF2DF0895B4
:00000001FF
