:020000020000FC
:0200000065C0D9
:040004000C942E0129
:04005C000C943801C7
:0400B4000C94660141
:1000C8000C94A8014FEF4DBF41E24EBFA0E0B2E053
:1000D800E0E0F2E0C4E0D4E0442749934883C2E07A
:1000E800D4E0442749934883C8EFD3E04427499391
:1000F8004883CAEFD3E0442749934883CCEFD3E041
:10010800442749934883789442E0409369004DB36B
:1001180041604DBBC6EFD3E0442749934883C4EF01
:10012800D3E044274993488340E044BD44E045BDBB
:1001380041E040936E00C0E0D4E0442749934883EF
:1001480040E04093200144E04093210141E0409386
:100158007300CEEFD3E044274993488340E04093AF
:10016800A00044E04093A10041E04093720040EFBA
:1001780040930A014FEF47B948B90FEF00BB01B9E7
:10018800002701BB02B908E32FD13ED157D108E3BC
:100198002BD13AD14AD108E327D136D108E324D16B
:1001A80033D108E021D130D101E01ED12DD106E0B4
:1001B8001BD12AD10EE018D127D14091FA03413042
:1001C80029F04091F803413009F03AD03FEE112769
:1001D800143099F330930B014FEF4A95F1F74091A2
:1001E80009014F704F3059F021E00027043039F0F1
:1001F800542F522341F00395220F0C94FA00330F29
:1002080013950C94EC00133079F0033089F0402FEB
:10021800440F400F410F4395613079F261E04193FB
:100228000C9421014427F8CF41E4400F0C9421019C
:100238001130C1F343E20C9421010C94E100FFCF8B
:10024800AE17BF0731F04D914093040441E040934D
:10025800F80308954F934FB74F9344E04093FE033C
:100268004F914FBF4F9118954F934FB74F93DF93CF
:10027800CF939F938F936130E9F48091F603909127
:10028800F70301968E3140E0940781F46627C6EFA4
:10029800D3E04427499348838091F4039091F50370
:1002A80001968093F4039093F50304C08093F603BA
:1002B8009093F7038F919F91CF91DF914F914FBF0B
:1002C8004F9118954F934FB74F935F93DF93CF9309
:1002D8009F938F934091FA03413069F58091FE0313
:1002E8009091FF030196813040E0940749F04091D6
:1002F800FC034130E1F4853040E0940749F017C031
:1003080041E04093FC034FE4042F75D07DD00FC02B
:10031800CEEFD3E044274993488343E4042F6BD0BE
:1003280073D044274093FC034093FA0304C080939E
:10033800FE039093FF038F919F91CF91DF915F917F
:100348004F914FBF4F9118954F934FB74F935F936E
:10035800DF93CF939F938F934091FA034130D9F164
:100368004091F8034130B9F580910004909101045F
:100378000196823040E0940751F540910204509173
:100388000404451730F0451741F04A95409302049C
:100398000BC043954093020407C055275093F803B8
:1003A80051E05093FA030DC0405D01E01DD02CD000
:1003B80006E01AD029D00EE017D026D0042F1BD083
:1003C80023D0C0E0D4E044274993488304C08093F5
:1003D8000004909301048F919F91CF91DF915F91D9
:1003E8004F914FBF4F91189501BB1FD0169A1DD042
:1003F80016981BD0089501BB179A17D0169A15D0D6
:10040800169813D0179808950F93002700BB01BBC7
:10041800159A0BD0169A09D00FB1169807FDF9CF87
:1004280015980FEF00BB0F9108958F939F939FE04E
:100438008CE90197F1F79F918F910895F6DFF5DF29
:08044800F4DFF3DFF2DF089599
:00000001FF
