:020000020000FC
:0200000065C0D9
:040004000C947B01DC
:04005C000C9485017A
:04008C000C940902C5
:0400B4000C941C028A
:1000C8000C9463024FEF4DBF41E24EBFA0E0B2E097
:1000D800E0E0F2E0C8E0D4E0442749934883C6E072
:1000E800D4E0442749934883C8EFD3E04427499391
:1000F8004883CAEFD3E0442749934883CCEFD3E041
:10010800442749934883CEEFD3E044274993488353
:10011800789442E0409369004DB341604DBBC6EF0F
:10012800D3E0442749934883C4EFD3E04427499355
:10013800488340E044BD44E045BD41E040936E0043
:100148008FEF40E14DB941E04093910041E2409387
:10015800900043E04093910041E040937100C4E077
:10016800D4E044274993488340E04093200144E089
:100178004093210141E040937300C2E0D4E044275A
:100188004993488340E04093A00044E04093A10095
:1001980041E04093720040EF40930A014FEF47B9A6
:1001A80048B90FEF00BB01B9002701BB02B9772797
:1001B80008E3D5D1E4D1FDD108E3D1D1E0D1F0D124
:1001C80008E3CDD1DCD108E3CAD1D9D108E0C7D141
:1001D800D6D101E0C4D1D3D106E0C1D1D0D10EE04F
:1001E800BED1CDD140E3042FC1D1C9D1713049F07E
:1001F8004091FA03413001F04091F803413009F091
:100208006CD03FEE1127143089F330930B014FEF78
:100218004A95F1F7409109014F704F3059F021E0AC
:100228000027043039F0542F522341F00395220F50
:100238000C941501330F13950C940701133079F0C2
:10024800033089F0402F440F400F410F4395613030
:1002580069F261E041930C944A014427F8CF41E4E4
:10026800400F0C944A01103029F01130B1F343E2E9
:100278000C944A01613051F061E0703019F009D0F6
:100288000C944A0171E016D00C944A010C94FA00BF
:10029800FFCF4F93772788277093FE03709300044E
:1002A80080939A0080939B0040E3042F5FD167D12D
:1002B8004F9108954F934091FA03413031F444E04F
:1002C8004093020441E04093FC0344274093080410
:1002D80041E04093F8034F910895AE17BF0731F0FE
:1002E8004D914093080441E04093F80308954F93DB
:1002F8004FB74F9344E0409302044F914FBF4F9143
:1003080018954F934FB74F93DF93CF939F938F9346
:100318006130E9F48091F6039091F70301968E31EC
:1003280040E0940781F46627C6EFD3E04427499359
:1003380048838091F4039091F50301968093F40328
:100348009093F50304C08093F6039093F7038F917D
:100358009F91CF91DF914F914FBF4F9118954F9338
:1003680001E0FDD00CD106E0FAD009D10EE0F7D0BB
:1003780006D145E4042FFAD002D14DE6042FF6D079
:10038800FED045E6042FF2D0FAD042E7042FEED093
:10039800F6D047E6042FEAD0F2D045E6042FE6D09F
:1003A800EED04EE6042FE2D0EAD043E6042FDED0AA
:1003B800E6D049E7042FDAD0E2D000ECD0D0DFD085
:1003C80043E4042FD3D0DBD041E6042FCFD0D7D0DD
:1003D8004CE6042FCBD0D3D04CE6042FC7D0CFD0D7
:1003E80040E2042FC3D0CBD040E3042FBFD0C7D006
:1003F80040E3042FBBD0C3D040E3042FB7D0BFD015
:1004080041E0409300044F9108954F93703071F08C
:100418008A9580939A0080939B004091FE03403018
:1004280029F040910004413009F099DF4F91189567
:100438004F934FB74F935F93DF93CF939F938F93D0
:100448004091FA03413091F58091020490910304A0
:100458000196813040E0940749F04091FC03413017
:1004680009F5853040E0940749F01CC041E040930D
:10047800FC034FE4042F7AD082D014C0C2E0D4E049
:1004880044274993488343E4042F70D078D0442705
:100498004093FC034093FA03713019F441E0409310
:1004A800FE0304C080930204909303048F919F91EC
:1004B800CF91DF915F914F914FBF4F9118954F9317
:1004C8004FB74F935F93DF93CF939F938F93409151
:1004D800FA034130D9F14091F8034130B9F58091E0
:1004E8000404909105040196823040E0940751F588
:1004F8004091060450910804451730F0451741F023
:100508004A95409306040BC043954093060407C0E0
:1005180055275093F80351E05093FA030DC0405DFE
:1005280001E01DD02CD006E01AD029D00EE017D05B
:1005380026D0042F1BD023D0C4E0D4E0442749930D
:10054800488304C080930404909305048F919F917D
:10055800CF91DF915F914F914FBF4F91189501BB9C
:100568001FD0169A1DD016981BD0089501BB179A54
:1005780017D0169A15D0169813D0179808950F9378
:10058800002700BB01BB159A0BD0169A09D00FB1F2
:10059800169807FDF9CF15980FEF00BB0F91089536
:1005A8008F939F939FE08CE90197F1F79F918F912B
:0E05B8000895F6DFF5DFF4DFF3DFF2DF0895DC
:00000001FF
