:020000020000FC
:0200000065C0D9
:04005C000C941301EC
:1000C8000C9441014FEF4DBF41E24EBFA0E0B2E0BA
:1000D800E0E0F2E0CEEFD3E0442749934883CCEF49
:1000E800D3E04427499348837894C6EFD3E0442764
:1000F80049934883C4EFD3E044274993488340E0B9
:1001080044BD44E045BD41E040936E00CAEFD3E0F2
:10011800442749934883C8EFD3E044274993488349
:1001280040E04093200144E04093210141E04093A6
:10013800730040EF40930A014FEF47B948B90FEFFA
:1001480000BB01B9002701BB02B908E3DFD0EED03C
:1001580007D108E3DBD0EAD0FAD008E3D7D0E6D05D
:1001680008E3D4D0E3D008E0D1D0E0D001E0CED08D
:10017800DDD006E0CBD0DAD00EE0C8D0D7D04091A1
:10018800F803403009F441D03FEE11271430B9F399
:1001980030930B014FEF4A95F1F7409109014F70E9
:1001A8004F3059F021E00027043039F0542F522302
:1001B80041F00395220F0C94D800330F13950C943B
:1001C800CA00133079F0033089F0402F440F400FF4
:1001D800410F4395613099F261E041930C94060117
:1001E8004427F8CF41E4400F0C940601103029F061
:1001F8001130B1F343E20C940601613001F261E081
:100208000C9406010C94C300FFCFAE17BF0731F062
:100218004D914093FE0341E04093F80308954F93B6
:100228004FB74F93DF93CF939F938F936130E9F448
:100238008091F6039091F70301968E3140E0940780
:1002480081F46627C6EFD3E0442749934883809119
:10025800F4039091F50301968093F4039093F503CA
:1002680004C08093F6039093F7038F919F91CF91E9
:10027800DF914F914FBF4F9118954F934FB74F93C1
:100288005F93DF93CF939F938F934091F80341300F
:10029800A1F58091FA039091FB030196823040E02A
:1002A800940739F54091FC035091FE03451730F04F
:1002B800451741F04A954093FC0308C04395409385
:1002C800FC0304C055275093F8030DC0405D01E0BE
:1002D8001DD02CD006E01AD029D00EE017D026D099
:1002E800042F1BD023D0CAEFD3E044274993488377
:1002F80004C08093FA039093FB038F919F91CF9151
:10030800DF915F914F914FBF4F91189501BB1FD05F
:10031800169A1DD016981BD0089501BB179A17D0AE
:10032800169A15D0169813D0179808950F9300278A
:1003380000BB01BB159A0BD0169A09D00FB11698BD
:1003480007FDF9CF15980FEF00BB0F9108958F9314
:100358009F939FE08CE90197F1F79F918F91089502
:0C036800F6DFF5DFF4DFF3DFF2DF0895CD
:00000001FF
