:020000020000FC
:020000002FC00F
:10005C000C94BD004FEF4DBF41E24EBFA0E0B2E0AB
:10006C00E0E0F2E07894CAECD2E04427499348836C
:10007C00C8ECD2E044274993488380E040E044BD7B
:10008C0042E045BD41E040936E0040EF40930A01D1
:10009C004FEF47B948B966270FEF00BB01B90027EE
:1000AC0001BB02B908E391D0A0D0B9D008E38DD040
:1000BC009CD0ACD008E389D098D008E386D095D0FA
:1000CC0008E083D092D001E080D08FD006E07DD0C4
:1000DC008CD00EE07AD089D0002F7ED086D03FEE27
:1000EC0011271430E1F330930B014FEF4A95F1F7E0
:1000FC00409109014F704F3059F021E00027043036
:10010C0039F0542F522341F00395220F0C948500A3
:10011C00330F13950C9477001330B9F00330C9F0FA
:10012C00402F440F400F410F7130C9F271E0883CF1
:10013C0051F00F9341934F5C042F4ED056D00F913A
:10014C0083950C94BA000C94A70041E4400F0C94D6
:10015C00BA00103029F0113031F043E20C94BA009F
:10016C004AE20C94BA0040E30C947500FFCF4F9315
:10017C004FB74F93DF93CF939F938F937130E9F4E5
:10018C008091CA029091CB020196883E43E094077D
:10019C0081F47727CAECD2E04427499348838091B5
:1001AC00C8029091C90201968093C8029093C9022B
:1001BC0004C08093CA029093CB028F919F91CF91F0
:1001CC00DF914F914FBF4F91189501BB1FD0169ADD
:1001DC001DD016981BD0089501BB179A17D0169AEC
:1001EC0015D0169813D0179808950F93002700BBBD
:1001FC0001BB159A0BD0169A09D00FB1169807FDB2
:10020C00F9CF15980FEF00BB0F9108958F939F9323
:10021C009FE08CE90197F1F79F918F910895F6DF9C
:0A022C00F5DFF4DFF3DFF2DF0895E1
:00000001FF
