:020000020000FC
:0C0000000C9430000C9460000C946D0017
:04003C000C94B00070
:10005C000C9482000FEF0DBF01E20EBF33270FEFA0
:10006C0007B938B902E00860009369000DB301606C
:10007C0002600DBB7894C2E0D2E00027099308839C
:10008C00C0E0D2E0002709930883C6E0D2E0002745
:10009C0009930883C4E0D2E000270993088300E0A9
:1000AC0004BD02E005BD01E000936E002227772716
:1000BC000C947B000F930FB70F93413021F041E06C
:1000CC002395330F38B90F910FBF0F9118950F93DC
:1000DC000FB70F93413029F041E02395330F33953F
:1000EC0038B90F910FBF0F911895283009F0FDCF3B
:1000FC00222773E051E0F9CF0F930FB70F93DF93E3
:10010C00CF939F938F934130E9F4809102029091A9
:10011C0003020196883E03E0900781F440E0C2E0C0
:10012C00D2E000270993088380910002909101028C
:10013C000196809300029093010204C08093020206
:10014C00909303028F919F91CF91DF910F910FBFED
:10015C000F9118950F930FB70F93DF93CF939F9336
:10016C008F93703021F180910602909107020196D5
:10017C0084380EE19007B9F4503019F038B950E0DA
:10018C0003C0002738B951E0C6E0D2E0002709933C
:10019C0008838091040290910502019680930402D9
:1001AC009093050204C080930602909307028F91EE
:0E01BC009F91CF91DF910F910FBF0F9118957A
:00000001FF
