:020000020000FC
:02000000C1C07D
:02000C00AFC083
:1000C80000C00FB70F93DF93CF938F939F938091C7
:1000D8000002909101020196853000E0900781F4BA
:1000E8002227C0E0D2E0002709930883809100020C
:1000F800909101020196809300029093010204C03E
:100108008093000290930102809102029091030271
:10011800019682340FE09007D1F4C2E0D2E00027C4
:100128000993088300E881D090D01695412F1127B4
:1001380059D0002744274FEF00E3070F7DD04FEF3A
:1001480000E3060F79D000E3050F76D004C0809352
:100158000202909303028F919F91CF91DF910F91AB
:100168000FBF1895203009F0189523950F930FB7F6
:100178000F9313950F910FBF0F9118950FEF07B9B4
:100188000FEF00BB01B9002701BB02B908E34DD04E
:100198005CD001E04AD059D006E047D056D00EE0F6
:1001A80044D053D008E000930A010AE400932801E0
:1001B80000270093290101E00093210101E8009341
:1001C800200100E8009369000DB304600DBB02E054
:1001D8000093210101E000937300789433272227CC
:1001E8001127FFCF55276627772700275F706F7085
:1001F8007F7055300CF05D5F65300CF06D5F7530C9
:100208000CF05D5F5F706F707F70440F551F5295E3
:100218005695661F62956695771F550F5295660F1E
:1002280062950395083014F3089501BB1FD0169A00
:100238001DD016981BD0089501BB179A17D0169A8F
:1002480015D0169813D0179808950F93002700BB60
:1002580001BB159A0BD0169A09D00FB1169807FD55
:10026800F9CF15980FEF00BB0F9108958F939F93C7
:100278009FE08CE90197F1F79F918F910895F6DF40
:10028800F5DFF4DFF3DFF2DF0895F9DFF8DFF7DFFA
:10029800F6DF0895FADFF9DFF8DFF7DFF6DF089514
:0A02A800F9DFF8DFF2DFF1DF08955F
:00000001FF
