:020000020000FC
:040000000C94080054
:10000C000C94820011274427222728E020936900B2
:10001C002DB324602DBB78940FEF0DBF01E20EBF02
:10002C000FEF00BB01B9002701BB02B908E32CD0CC
:10003C003BD054D008E328D037D047D008E324D0A5
:10004C0033D008E321D030D008E01ED02DD001E011
:10005C001BD02AD006E018D027D00EE015D024D023
:10006C0022270C94390040D022273327742F46D0F6
:10007C003BD001E009D018D006E006D015D00EE038
:10008C0003D012D04427EFCF01BB1FD0169A1DD03E
:10009C0016981BD0089501BB179A17D0169A15D035
:1000AC00169813D0179808950F93002700BB01BB27
:1000BC00159A0BD0169A09D00FB1169807FDF9CFE7
:1000CC0015980FEF00BB0F9108958F939F939FE0AE
:1000DC008CE90197F1F79F918F910895F6DFF5DF89
:1000EC00F4DFF3DFF2DF08952F93222723952233D9
:1000FC00ECDFE4F32F9108954395189514D0752FE8
:10010C006F933395703009F0F9CF7F913A95303079
:10011C0029F0705D072FBFDFC7DFF7CF77271127D7
:10012C00332722270895EF93FF93EDB7FEB70F9374
:10013C001F932F9322270AE0172F1A301CF02395B8
:10014C00101BFBCF522F612F2F911F910F91EDBFE1
:08015C00FEBFFF91EF91089531
:00000001FF
