:020000020000FC
:040000000C9430002C
:10005C000C9408010AE0A02E0FEF0DBF01E20EBFB9
:10006C007894C2E0D2E0552759935883C0E0D2E08F
:10007C0055275993588350E054BD52E055BD51E07B
:10008C0050936E0050EF50930A015FEF57B958B977
:10009C0070E30FEF00BB01B9002701BB02B9AA271F
:1000AC0008E377D086D09FD008E373D082D092D06B
:1000BC0008E36FD07ED008E36CD07BD008E069D029
:1000CC0078D001E066D075D006E063D072D00EE037
:1000DC0060D06FD0072F64D06CD07727BB2700EC93
:1000EC0058D067D04FEE22272430E1F340930B0118
:1000FC005FEF5A95F1F7509109015F705F3059F03D
:10010C0031E01127143039F0652F632341F013953A
:10011C00330F0C948800440F23950C947A002330F1
:10012C0041F1133051F1512F550F510F520FA13096
:10013C00C9F2A1E0BA9DB02DB50F5F5C052F30D090
:10014C0038D00C94CB005AE2A13061F2A1E001E06E
:10015C0020D02FD006E01DD02CD00EE01AD029D004
:10016C007B0FC72F7DD000EC14D023D0BB270C9471
:10017C00CB0051E4510F0C94CB00203021F32130F3
:10018C0019F053E20C94CB0050E358B90C9478005E
:10019C00FFCF01BB1FD0169A1DD016981BD0089507
:1001AC0001BB179A17D0169A15D0169813D017981A
:1001BC0008950F93002700BB01BB159A0BD0169A1C
:1001CC0009D00FB1169807FDF9CF15980FEF00BBAA
:1001DC000F9108958F939F939FE08CE90197F1F70E
:1001EC009F918F910895F6DFF5DFF4DFF3DFF2DFF7
:1001FC0008950F930436EEDF11F00395FBCF0F91AA
:10020C00A0E008955F935FB75F93DF93CF939F93C5
:10021C008F93A130E9F48091020290910302019630
:10022C00883E53E0950781F4A0E0C2E0D2E0552768
:10023C00599358838091000290910102019680930A
:10024C0000029093010204C0809302029093030277
:10025C008F919F91CF91DF915F915FBF5F911895C7
:10026C000F931F932F93EF93FF93EDB7FEB719D016
:10027C00202DC12D16D0102DC12DCF5C0C2F90DF51
:10028C0098DF1F5C012F8CDF94DF2F5C022F88DF3F
:10029C0090DFEDBFFEBFFF91EF912F911F910F915A
:1002AC000895EF93FF93EDB7FEB70F931F932F9322
:1002BC0022270AE01C2F2395101B1A3004F0022E63
:1002CC00112E2F911F910F91FDBFEEBFFF91EF915A
:00000001FF
