:020000020000FC
:040000000C94080054
:10000C000C9481004427222720E024BD22E025BD4A
:10001C0021E020936E00222728E0209369002DB365
:10002C0024602DBB78940FEF0DBF01E20EBF0FEFD4
:10003C0000BB01B9002701BB02B908E324D033D0BF
:10004C004CD008E320D02FD03FD008E31CD02BD0CD
:10005C0008E319D028D008E016D025D001E013D041
:10006C0022D006E010D01FD00EE00DD01CD02FEF08
:10007C0027B922270C94420036D022273327742F1D
:10008C0046D04427F9CF01BB1FD0169A1DD0169825
:10009C001BD0089501BB179A17D0169A15D0169835
:1000AC0013D0179808950F93002700BB01BB159A26
:1000BC000BD0169A09D00FB1169807FDF9CF1598E9
:1000CC000FEF00BB0F9108958F939F939FE08CE9E6
:1000DC000197F1F79F918F910895F6DFF5DFF4DF2B
:1000EC00F3DFF2DF08952F93222723952233ECDFE1
:1000FC00E4F32F910895F03009F01895F1E02F9367
:10010C002FB72F9343952F912FBF2F91189548B947
:10011C0013D0752F6F933395703009F0F8CF7F9112
:10012C003A95303029F0705D072FB4DFBCDFF7CF84
:10013C007727332722270895EF93FF93EDB7FEB768
:10014C000F931F932F9322270AE0172F1A301CF0BE
:10015C002395101BFBCF522F612F2F911F910F91C5
:10016C00EDBFFEBFFF91EF9108952F932FB72F9303
:10017C00DF93CF939F938F93F13011F4A5DFFF277B
:10018C008F919F91CF91DF912F912FBF2F91189528
:00000001FF
